{
  "contractName": "Vote",
  "abi": [
    {
      "inputs": [
        {
          "internalType": "string[]",
          "name": "candidateNames",
          "type": "string[]"
        },
        {
          "internalType": "uint256",
          "name": "_selectionType",
          "type": "uint256"
        },
        {
          "internalType": "uint256",
          "name": "_openingTime",
          "type": "uint256"
        },
        {
          "internalType": "uint256",
          "name": "_closingTime",
          "type": "uint256"
        }
      ],
      "payable": false,
      "stateMutability": "nonpayable",
      "type": "constructor"
    },
    {
      "anonymous": false,
      "inputs": [
        {
          "indexed": false,
          "internalType": "uint256",
          "name": "totalNumOfVoters",
          "type": "uint256"
        }
      ],
      "name": "VotingEvent",
      "type": "event"
    },
    {
      "constant": true,
      "inputs": [],
      "name": "candidateCount",
      "outputs": [
        {
          "internalType": "uint256",
          "name": "",
          "type": "uint256"
        }
      ],
      "payable": false,
      "stateMutability": "view",
      "type": "function"
    },
    {
      "constant": true,
      "inputs": [
        {
          "internalType": "uint256",
          "name": "",
          "type": "uint256"
        }
      ],
      "name": "candidates",
      "outputs": [
        {
          "internalType": "uint256",
          "name": "id",
          "type": "uint256"
        },
        {
          "internalType": "string",
          "name": "name",
          "type": "string"
        },
        {
          "internalType": "uint256",
          "name": "voteCount",
          "type": "uint256"
        }
      ],
      "payable": false,
      "stateMutability": "view",
      "type": "function"
    },
    {
      "constant": true,
      "inputs": [],
      "name": "closingTime",
      "outputs": [
        {
          "internalType": "uint256",
          "name": "",
          "type": "uint256"
        }
      ],
      "payable": false,
      "stateMutability": "view",
      "type": "function"
    },
    {
      "constant": true,
      "inputs": [],
      "name": "openingTime",
      "outputs": [
        {
          "internalType": "uint256",
          "name": "",
          "type": "uint256"
        }
      ],
      "payable": false,
      "stateMutability": "view",
      "type": "function"
    },
    {
      "constant": true,
      "inputs": [],
      "name": "selectionType",
      "outputs": [
        {
          "internalType": "uint256",
          "name": "",
          "type": "uint256"
        }
      ],
      "payable": false,
      "stateMutability": "view",
      "type": "function"
    },
    {
      "constant": true,
      "inputs": [],
      "name": "totalNumOfCandidates",
      "outputs": [
        {
          "internalType": "uint256",
          "name": "",
          "type": "uint256"
        }
      ],
      "payable": false,
      "stateMutability": "view",
      "type": "function"
    },
    {
      "constant": true,
      "inputs": [],
      "name": "totalNumOfVoters",
      "outputs": [
        {
          "internalType": "uint256",
          "name": "",
          "type": "uint256"
        }
      ],
      "payable": false,
      "stateMutability": "view",
      "type": "function"
    },
    {
      "constant": true,
      "inputs": [
        {
          "internalType": "address",
          "name": "",
          "type": "address"
        }
      ],
      "name": "voted",
      "outputs": [
        {
          "internalType": "bool",
          "name": "",
          "type": "bool"
        }
      ],
      "payable": false,
      "stateMutability": "view",
      "type": "function"
    },
    {
      "constant": false,
      "inputs": [
        {
          "internalType": "uint256",
          "name": "candidateId",
          "type": "uint256"
        }
      ],
      "name": "castVoteForSingleOption",
      "outputs": [],
      "payable": false,
      "stateMutability": "nonpayable",
      "type": "function"
    },
    {
      "constant": false,
      "inputs": [
        {
          "internalType": "uint256[]",
          "name": "candidateIds",
          "type": "uint256[]"
        }
      ],
      "name": "castVoteForMultiOptions",
      "outputs": [],
      "payable": false,
      "stateMutability": "nonpayable",
      "type": "function"
    },
    {
      "constant": true,
      "inputs": [],
      "name": "getResult",
      "outputs": [
        {
          "internalType": "string[]",
          "name": "",
          "type": "string[]"
        },
        {
          "internalType": "uint256[]",
          "name": "",
          "type": "uint256[]"
        }
      ],
      "payable": false,
      "stateMutability": "view",
      "type": "function"
    },
    {
      "constant": true,
      "inputs": [],
      "name": "isOngoing",
      "outputs": [
        {
          "internalType": "bool",
          "name": "",
          "type": "bool"
        }
      ],
      "payable": false,
      "stateMutability": "view",
      "type": "function"
    },
    {
      "constant": true,
      "inputs": [],
      "name": "hasClosed",
      "outputs": [
        {
          "internalType": "bool",
          "name": "",
          "type": "bool"
        }
      ],
      "payable": false,
      "stateMutability": "view",
      "type": "function"
    }
  ],
  "bytecode": "0x60806040523480156200001157600080fd5b5060405162001493380380620014938339818101604052620000379190810190620002f9565b600060055414806200004b57506001600554145b6200005557600080fd5b428210156200006357600080fd5b808211156200007157600080fd5b826005819055508160068190555080600781905550835160028190555060008090505b600254811015620000d257620000c4858281518110620000b057fe5b6020026020010151620000dd60201b60201c565b808060010191505062000094565b50505050506200045c565b6040518060600160405280600454815260200182815260200160008152506000806004548152602001908152602001600020600082015181600001556020820151816001019080519060200190620001379291906200015a565b506040820151816002015590505060046000815480929190600101919050555050565b828054600181600116156101000203166002900490600052602060002090601f016020900481019282601f106200019d57805160ff1916838001178555620001ce565b82800160010185558215620001ce579182015b82811115620001cd578251825591602001919060010190620001b0565b5b509050620001dd9190620001e1565b5090565b6200020691905b8082111562000202576000816000905550600101620001e8565b5090565b90565b600082601f8301126200021b57600080fd5b8151620002326200022c82620003ac565b6200037e565b9150818183526020840193506020810190508360005b838110156200027c578151860162000261888262000286565b84526020840193506020830192505060018101905062000248565b5050505092915050565b600082601f8301126200029857600080fd5b8151620002af620002a982620003d5565b6200037e565b91508082526020830160208301858383011115620002cc57600080fd5b620002d98382846200040c565b50505092915050565b600081519050620002f38162000442565b92915050565b600080600080608085870312156200031057600080fd5b600085015167ffffffffffffffff8111156200032b57600080fd5b620003398782880162000209565b94505060206200034c87828801620002e2565b93505060406200035f87828801620002e2565b92505060606200037287828801620002e2565b91505092959194509250565b6000604051905081810181811067ffffffffffffffff82111715620003a257600080fd5b8060405250919050565b600067ffffffffffffffff821115620003c457600080fd5b602082029050602081019050919050565b600067ffffffffffffffff821115620003ed57600080fd5b601f19601f8301169050602081019050919050565b6000819050919050565b60005b838110156200042c5780820151818401526020810190506200040f565b838111156200043c576000848401525b50505050565b6200044d8162000402565b81146200045957600080fd5b50565b611027806200046c6000396000f3fe608060405234801561001057600080fd5b50600436106100cf5760003560e01c80638f2086261161008c578063aec2ccae11610066578063aec2ccae146101f2578063b7a8807c14610222578063c366098b14610240578063de2927891461025e576100cf565b80638f2086261461019a578063952d60cf146101b8578063a9a981a3146101d4576100cf565b80631515bc2b146100d45780632e4f2bf0146100f25780633477ee2e1461010e5780633e0881a9146101405780634b6753bc1461015e57806369e89ace1461017c575b600080fd5b6100dc61027d565b6040516100e99190610d97565b60405180910390f35b61010c60048036036101079190810190610a2e565b610289565b005b61012860048036036101239190810190610a73565b6104d0565b60405161013793929190610e4d565b60405180910390f35b610148610592565b6040516101559190610d97565b60405180910390f35b6101666105ad565b6040516101739190610e32565b60405180910390f35b6101846105b3565b6040516101919190610e32565b60405180910390f35b6101a26105b9565b6040516101af9190610e32565b60405180910390f35b6101d260048036036101cd9190810190610a73565b6105bf565b005b6101dc6107bd565b6040516101e99190610e32565b60405180910390f35b61020c60048036036102079190810190610a05565b6107c3565b6040516102199190610d97565b60405180910390f35b61022a6107e3565b6040516102379190610e32565b60405180910390f35b6102486107e9565b6040516102559190610e32565b60405180910390f35b6102666107ef565b604051610274929190610d60565b60405180910390f35b60006007544211905090565b610291610592565b6102d0576040517f08c379a00000000000000000000000000000000000000000000000000000000081526004016102c790610db2565b60405180910390fd5b600160003373ffffffffffffffffffffffffffffffffffffffff1673ffffffffffffffffffffffffffffffffffffffff16815260200190815260200160002060009054906101000a900460ff161561035d576040517f08c379a000000000000000000000000000000000000000000000000000000000815260040161035490610dd2565b60405180910390fd5b600082829050116103a3576040517f08c379a000000000000000000000000000000000000000000000000000000000815260040161039a90610df2565b60405180910390fd5b6001600554146103b257600080fd5b60008090505b82829050811015610428576002548383838181106103d257fe5b90506020020135106103e457506104cc565b6000808484848181106103f357fe5b9050602002013581526020019081526020016000206002016000815480929190600101919050555080806001019150506103b8565b5060036000815480929190600101919050555060018060003373ffffffffffffffffffffffffffffffffffffffff1673ffffffffffffffffffffffffffffffffffffffff16815260200190815260200160002060006101000a81548160ff0219169083151502179055507fb9dd9ea4ae0d0dc4cdcedf3b96f191a83d15c9b753a242db52c50f8eed4839306003546040516104c39190610e32565b60405180910390a15b5050565b6000602052806000526040600020600091509050806000015490806001018054600181600116156101000203166002900480601f0160208091040260200160405190810160405280929190818152602001828054600181600116156101000203166002900480156105825780601f1061055757610100808354040283529160200191610582565b820191906000526020600020905b81548152906001019060200180831161056557829003601f168201915b5050505050908060020154905083565b600060065442101580156105a857506007544211155b905090565b60075481565b60055481565b60035481565b6105c7610592565b610606576040517f08c379a00000000000000000000000000000000000000000000000000000000081526004016105fd90610db2565b60405180910390fd5b600160003373ffffffffffffffffffffffffffffffffffffffff1673ffffffffffffffffffffffffffffffffffffffff16815260200190815260200160002060009054906101000a900460ff1615610693576040517f08c379a000000000000000000000000000000000000000000000000000000000815260040161068a90610dd2565b60405180910390fd5b600081101580156106a5575060025481105b6106e4576040517f08c379a00000000000000000000000000000000000000000000000000000000081526004016106db90610e12565b60405180910390fd5b6000600554146106f357600080fd5b6000808281526020019081526020016000206002016000815480929190600101919050555060036000815480929190600101919050555060018060003373ffffffffffffffffffffffffffffffffffffffff1673ffffffffffffffffffffffffffffffffffffffff16815260200190815260200160002060006101000a81548160ff0219169083151502179055507fb9dd9ea4ae0d0dc4cdcedf3b96f191a83d15c9b753a242db52c50f8eed4839306003546040516107b29190610e32565b60405180910390a150565b60045481565b60016020528060005260406000206000915054906101000a900460ff1681565b60065481565b60025481565b6060806107fa61027d565b61080357600080fd5b606060025460405190808252806020026020018201604052801561083b57816020015b60608152602001906001900390816108265790505b50905060606002546040519080825280602002602001820160405280156108715781602001602082028038833980820191505090505b50905060008090505b600254811015610984576000808281526020019081526020016000206001018054600181600116156101000203166002900480601f01602080910402602001604051908101604052809291908181526020018280546001816001161561010002031660029004801561092d5780601f106109025761010080835404028352916020019161092d565b820191906000526020600020905b81548152906001019060200180831161091057829003601f168201915b505050505083828151811061093e57fe5b60200260200101819052506000808281526020019081526020016000206002015482828151811061096b57fe5b602002602001018181525050808060010191505061087a565b5081819350935050509091565b6000813590506109a081610fb6565b92915050565b60008083601f8401126109b857600080fd5b8235905067ffffffffffffffff8111156109d157600080fd5b6020830191508360208202830111156109e957600080fd5b9250929050565b6000813590506109ff81610fcd565b92915050565b600060208284031215610a1757600080fd5b6000610a2584828501610991565b91505092915050565b60008060208385031215610a4157600080fd5b600083013567ffffffffffffffff811115610a5b57600080fd5b610a67858286016109a6565b92509250509250929050565b600060208284031215610a8557600080fd5b6000610a93848285016109f0565b91505092915050565b6000610aa88383610baa565b905092915050565b6000610abc8383610d42565b60208301905092915050565b6000610ad382610eab565b610add8185610ee6565b935083602082028501610aef85610e8b565b8060005b85811015610b2b5784840389528151610b0c8582610a9c565b9450610b1783610ecc565b925060208a01995050600181019050610af3565b50829750879550505050505092915050565b6000610b4882610eb6565b610b528185610ef7565b9350610b5d83610e9b565b8060005b83811015610b8e578151610b758882610ab0565b9750610b8083610ed9565b925050600181019050610b61565b5085935050505092915050565b610ba481610f3c565b82525050565b6000610bb582610ec1565b610bbf8185610f08565b9350610bcf818560208601610f72565b610bd881610fa5565b840191505092915050565b6000610bee82610ec1565b610bf88185610f19565b9350610c08818560208601610f72565b610c1181610fa5565b840191505092915050565b6000610c29601c83610f19565b91507f456c656374696f6e206973206e6f7420696e2070726f67726573732e000000006000830152602082019050919050565b6000610c69601283610f19565b91507f596f7520616c726561647920766f7465642e00000000000000000000000000006000830152602082019050919050565b6000610ca9602383610f19565b91507f596f75206d7573742073656c656374206174206c65617374206f6e65206f707460008301527f696f6e00000000000000000000000000000000000000000000000000000000006020830152604082019050919050565b6000610d0f601683610f19565b91507f4e6f7420612076616c69642063616e6469646174652e000000000000000000006000830152602082019050919050565b610d4b81610f68565b82525050565b610d5a81610f68565b82525050565b60006040820190508181036000830152610d7a8185610ac8565b90508181036020830152610d8e8184610b3d565b90509392505050565b6000602082019050610dac6000830184610b9b565b92915050565b60006020820190508181036000830152610dcb81610c1c565b9050919050565b60006020820190508181036000830152610deb81610c5c565b9050919050565b60006020820190508181036000830152610e0b81610c9c565b9050919050565b60006020820190508181036000830152610e2b81610d02565b9050919050565b6000602082019050610e476000830184610d51565b92915050565b6000606082019050610e626000830186610d51565b8181036020830152610e748185610be3565b9050610e836040830184610d51565b949350505050565b6000819050602082019050919050565b6000819050602082019050919050565b600081519050919050565b600081519050919050565b600081519050919050565b6000602082019050919050565b6000602082019050919050565b600082825260208201905092915050565b600082825260208201905092915050565b600082825260208201905092915050565b600082825260208201905092915050565b6000610f3582610f48565b9050919050565b60008115159050919050565b600073ffffffffffffffffffffffffffffffffffffffff82169050919050565b6000819050919050565b60005b83811015610f90578082015181840152602081019050610f75565b83811115610f9f576000848401525b50505050565b6000601f19601f8301169050919050565b610fbf81610f2a565b8114610fca57600080fd5b50565b610fd681610f68565b8114610fe157600080fd5b5056fea365627a7a72315820d7ab2ace22559d6cb635c501466d15d0db9f0801e28c35e6ea595495dfead6e66c6578706572696d656e74616cf564736f6c63430005100040",
  "source": "// SPDX-License-Identifier: MIT\r\npragma solidity >=0.4.22 <0.9.0;\r\npragma experimental ABIEncoderV2;\r\n\r\ncontract Vote {\r\n    struct Candidate {\r\n        uint256 id;\r\n        string name;\r\n        uint256 voteCount;\r\n    }\r\n\r\n    mapping(uint256 => Candidate) public candidates;\r\n    mapping(address => bool) public voted;\r\n    event VotingEvent(uint256 totalNumOfVoters);\r\n    uint256 public totalNumOfCandidates;\r\n    uint256 public totalNumOfVoters;\r\n    uint256 public candidateCount;\r\n    uint256 public selectionType;\r\n    uint256 public openingTime;\r\n    uint256 public closingTime;\r\n\r\n    constructor(\r\n        string[] memory candidateNames,\r\n        uint256 _selectionType, // 0이면 single, 1이면 multiple selection\r\n        uint256 _openingTime,\r\n        uint256 _closingTime\r\n    ) public {\r\n        require(selectionType == 0 || selectionType == 1);\r\n        require(_openingTime >= block.timestamp);\r\n        require(_openingTime <= _closingTime);\r\n\r\n        selectionType = _selectionType;\r\n        openingTime = _openingTime;\r\n        closingTime = _closingTime;\r\n\r\n        totalNumOfCandidates = candidateNames.length;\r\n        for (uint256 i = 0; i < totalNumOfCandidates; i++) {\r\n            addCandidate(candidateNames[i]);\r\n        }\r\n    }\r\n\r\n    function addCandidate(string memory name) internal {\r\n        candidates[candidateCount] = Candidate(candidateCount, name, 0);\r\n        candidateCount++;\r\n    }\r\n\r\n    function castVoteForSingleOption(uint256 candidateId) external {\r\n        require(isOngoing(), \"Election is not in progress.\");\r\n        require(!voted[msg.sender], \"You already voted.\");\r\n        require(\r\n            candidateId >= 0 && candidateId < totalNumOfCandidates,\r\n            \"Not a valid candidate.\"\r\n        );\r\n        require(selectionType == 0);\r\n\r\n        candidates[candidateId].voteCount++;\r\n        totalNumOfVoters++;\r\n        voted[msg.sender] = true;\r\n\r\n        emit VotingEvent(totalNumOfVoters);\r\n    }\r\n\r\n    function castVoteForMultiOptions(uint256[] calldata candidateIds) external {\r\n        require(isOngoing(), \"Election is not in progress.\");\r\n        require(!voted[msg.sender], \"You already voted.\");\r\n        require(candidateIds.length > 0, \"You must select at least one option\");\r\n        require(selectionType == 1);\r\n\r\n        for (uint256 i = 0; i < candidateIds.length; i++) {\r\n            if (candidateIds[i] >= totalNumOfCandidates) {\r\n                return;\r\n            }\r\n            candidates[candidateIds[i]].voteCount++;\r\n        }\r\n        totalNumOfVoters++;\r\n        voted[msg.sender] = true;\r\n\r\n        emit VotingEvent(totalNumOfVoters);\r\n    }\r\n\r\n    function getResult()\r\n        external\r\n        view\r\n        returns (string[] memory, uint256[] memory)\r\n    {\r\n        require(hasClosed());\r\n        string[] memory names = new string[](totalNumOfCandidates);\r\n        uint256[] memory voteCounts = new uint256[](totalNumOfCandidates);\r\n        for (uint256 i = 0; i < totalNumOfCandidates; i++) {\r\n            names[i] = candidates[i].name;\r\n            voteCounts[i] = candidates[i].voteCount;\r\n        }\r\n        return (names, voteCounts);\r\n    }\r\n\r\n    function isOngoing() public view returns (bool) {\r\n        return block.timestamp >= openingTime && block.timestamp <= closingTime;\r\n    }\r\n\r\n    function hasClosed() public view returns (bool) {\r\n        return block.timestamp > closingTime;\r\n    }\r\n}\r\n\r\ncontract MockVote is Vote {\r\n    constructor(\r\n        string[] memory candidateNames,\r\n        uint256 _selectionType, // 0이면 single, 1이면 multiple selection\r\n        uint256 _openingTime,\r\n        uint256 _closingTime\r\n    ) public Vote(candidateNames, _selectionType, _openingTime, _closingTime) {}\r\n\r\n    function decreaseOpeningTime(uint256 secs) external {\r\n        openingTime -= secs;\r\n    }\r\n\r\n    function decreaseClosingTime(uint256 secs) external {\r\n        closingTime -= secs;\r\n    }\r\n}\r\n",
  "sourcePath": "C:/Users/samsung/Desktop/SOTE/blockchain/contracts/Vote.sol",
  "compiler": {
    "name": "solc",
    "version": "0.5.16+commit.9c3226ce.Emscripten.clang"
  },
  "schemaVersion": "3.3.4",
  "updatedAt": "2021-04-11T12:44:32.334Z",
  "networkType": "ethereum",
  "devdoc": {
    "methods": {}
  },
  "userdoc": {
    "methods": {}
  }
}